:020000041000EA
:1000000000B5324B212058609868022188439860DF
:10001000D860186158612E4B002199600221596106
:100020000121F02299502B49196001219960352056
:1000300000F044F80222904214D00621196600F024
:1000400034F8196E01211966002018661A6600F04E
:100050002CF8196E196E196E052000F02FF8012189
:100060000842F9D1002199601B49196000215960AB
:100070001A491B48016001219960EB211966A021F2
:10008000196600F012F800219960164914480160C1
:100090000121996001BC002800D000471248134993
:1000A000086003C880F30888084703B5996A0420EC
:1000B0000142FBD001200142F8D103BD02B5186610
:1000C0001866FFF7F2FF186E186E02BD00000240BE
:1000D000000000180000070000035F00212200005C
:1000E000F4000018222000A00001001008ED00E03C
:1000F00000000000000000000000000074B24E7A12
:1001000000200420F7010010C3010010C5010010F9
:10011000C1010010C1010010C1010010C101001097
:10012000C1010010C1010010C1010010C701001081
:10013000C1010010C1010010C9010010CB01001065
:10014000CD010010CD010010CD010010CD01001037
:10015000CD010010CD010010CD010010CD01001027
:10016000CD010010CD010010CD010010CD01001017
:10017000CD010010CD010010CD010010CD01001007
:10018000CD010010CD010010CD010010CD010010F7
:10019000CD010010CD010010CD010010CD010010E7
:1001A000CD010010CD010010CD010010CD010010D7
:1001B000CD010010CD010010CD010010CD010010C7
:1001C00000BE00BE00BE00BE00BE00BEEFF3058054
:1001D000103800BEF2EB8871188B01103C8B0110B7
:1001E0003402001090A31AE700201F49086006C8D7
:1001F00081F3088810471D48006800282FD10DA4FE
:100200000ECC002902D000F012F8F9E71849194A7B
:10021000002000E001C19142FCD1174988471749ED
:1002200088471749884700BEFDE701C901C29A42C5
:10023000FBD370473C8B0110C0000020701C0020D5
:10024000ECA601100000042000000420ECA6011020
:10025000001004200010042000000000704709482E
:1002600003F0A2FF0047000008ED00E0000000D00E
:10027000701C002074260220E92E0010B504001026
:10028000A72E00105756000006005250ABB3605323
:100290002849011006005250861C030238490110FB
:1002A000060052505422A29D4049011005005250B0
:1002B000DE65F468ECA60110F8B5C04610B5064C32
:1002C0002378002B07D1054B002B02D0044800E017
:1002D00000BF0123237010BD881D00200000000016
:1002E000A0320110044B10B5002B03D00349044881
:1002F00000E000BF10BDC046000000008C1D0020C3
:10030000A0320110F8B5CE46474680B580460F00B2
:10031000140099461100254803F09AFF050B2103AC
:10032000224803F095FF4B1E99416D180F2D00D800
:10033000102529001E4803F08BFF210003F088FFE1
:10034000461E2B090F212940FF251D402D010D437D
:1003500043469C00E3189B00164A944663445D6044
:100360003204120C1A6148467043642103F070FF96
:1003700083B24444A400104A94466444002F10D031
:1003800010229340002F0ED00C48226853400340A7
:1003900080225201144323603000C0BCB946B046ED
:1003A000F8BD3A00EDE70648EFE7C046405973074D
:1003B00000943577000005400C0005400000FFFF69
:1003C000FFFF0000F0B587B0182005F0F1F8050038
:1003D00000F0BAF8082005F0EBF8040000F032FE57
:1003E0000421102000F080FE002203920492059266
:1003F00010230493294B0593294B1A609A60DA6005
:10040000059A01921A61049A5A60012203990A43DB
:100410001A604B23002200210020FFF773FF08F031
:10042000B3FD1F211A2000F05FFE002200211A20D8
:1004300000F072FE00211A2000F088FE194B1B68A4
:10044000E022D2011340184A1360184B04221A60AC
:10045000144B1B68DB05FBD5124B5F68BFB228004D
:1004600000F0FAF804F00CFA061C380004F0C0F9A9
:1004700002000B00200000F014FE04F0F9F9020065
:100480004B2300210020FFF73DFF0949301C04F0F9
:10049000A0FF04F0D5FF01F06BFED6E7FFFF0000E0
:1004A0000000054000C0044000D0044000E00440CB
:1004B0000000C84200B583B005F056FA8022002340
:1004C0000193013300930023D2000349034807F04E
:1004D00025FE07F077FEFEE7A0320110C5030010ED
:1004E00070B50400D0252D068026F601AE610220ED
:1004F000002101F011FE6E610520002101F00CFECB
:10050000AE61206800F06CFD04F0A0FF0022094BF2
:1005100004F0FDF8084A094B04F0F9F80022084BF2
:1005200004F0F5F8074B18605960012001F020FE37
:10053000D8E7C046006AF840006F8104C58FA13F2C
:100540000000E03F801C002070B588B005003A48EC
:1005500005F0CEF90421142000F0C6FD042113207B
:1005600000F0C2FD0421062000F0BEFD042107209A
:1005700000F0BAFD00240594069407941023069316
:100580002E4B07932E4A946214635463079B039384
:100590009363069B0393D3620123059919439162E8
:1005A0005461D461146207990391516206990391D1
:1005B0009161059919435161D46354649464079916
:1005C0000391D16406990391116405991943D1638C
:1005D000D4635464946407990391D16406991164B7
:1005E00005990B43D3630E2000F0C8FDD0263606D4
:1005F0008023DB0173620F2000F0C0FD80231B020B
:10060000B362102004F0D4FF06000F2100F06AFC52
:100610002E600C4A0C4BAA60EB600C4B2B618022C5
:100620000194022300932B00D2000949094807F0E6
:1006300075FD280008B070BDAC320110FFFF00004E
:1006400000000540006F8104C58FA13FE2710000EA
:10065000B8320110E1040010014B18685968704766
:10066000801C002010B50378012B06D0022B0DD082
:10067000032B14D0082B1BD010BD8268002AF5D1A3
:10068000104B114A1149124802F010FC8268002AEE
:10069000EED1104B0C4A10490D4802F007FC82685D
:1006A000002AE7D10D4B084A0D49094802F0FEFB2C
:1006B0008368002BE0D10B4B034A0B49044802F03E
:1006C000F5FBC04698350110D0350110B245000049
:1006D00090330110F4370110B34500002C3801109D
:1006E000B445000064380110B545000010B50400A1
:1006F0000023037083600121FFF7B4FF2378012BEF
:1007000007D0022B0ED0032B15D0082B1CD02000B5
:1007100010BDA268002AF4D1104B114A11491248A9
:1007200002F0C4FBA268002AEDD1104B0C4A10491C
:100730000D4802F0BBFBA268002AE6D10D4B084A27
:100740000D49094802F0B2FBA368002BDFD10B4B27
:10075000034A0B49044802F0A9FBC0469835011032
:10076000D0350110B245000090330110F43701106C
:10077000B34500002C380110B44500006438011066
:10078000B54500007047000070B504000E0015006C
:1007900069E0A268002A71D14D4B4E4A4E494F483C
:1007A00002F084FBA268002A6AD14D4B494A4D49A8
:1007B0004A4802F07BFBA268002A63D14A4B454AB3
:1007C0004A49464802F072FBA368002B5CD1484BB3
:1007D000404A4849414802F069FBAA68002A5CD1B6
:1007E0003B4B3C4A3C493D4802F060FBAA68002A6A
:1007F00055D13B4B374A3B49384802F057FBAA6872
:10080000002A4ED1384B334A3849344802F04EFB67
:10081000AB68002B47D1364B2E4A36492F4802F0A1
:1008200045FBA268002A41D1294B2A4A2A492B4874
:1008300002F03CFBA268002A3AD1294B254A2949FB
:10084000264802F033FBA268002A33D1264B214A06
:100850002649224802F02AFB21782000083000F0C7
:1008600027F910341035B4422FD023782B70A268AA
:10087000E368AA60EB602378012B8AD0022B91D029
:10088000032B98D0082B9FD0002323700022002335
:10089000A260E3602B78012B9FD0022BA6D0032B04
:1008A000ADD0082BB4D02378012BBAD0022BC1D005
:1008B000032BC8D0082BCFD1A368002BCCD10C4B75
:1008C000044A0C49054802F0F1FA280070BDC04600
:1008D00098350110D0350110B24500009033011059
:1008E000F4370110B34500002C380110B445000066
:1008F00064380110B5450000F8B504000D008023F0
:100900001B05994225D207688368DB1B1B1199429E
:100910001ED94368DF1B002920D080231B05994284
:100920001AD2080104F044FE060023003200616878
:100930002068FFF729FF2068A368191A002801D052
:1009400004F03EFE2660F71967602D017519A56059
:10095000F8BD034808F014FE08F0EAFD0026E4E7BD
:10096000B8380110F0B5DE4657464E464546E0B56C
:1009700083B005008846170001230093436802688E
:100980009C1A2411354A0121A24259D001948C426B
:1009900059D301AA1268A4182A689B1A1B119C42F9
:1009A00053D380231B059C4251D22B689A466B6817
:1009B0009B46434652469B1A9946002C4BD08023B7
:1009C0001B059C4245D2200104F0F2FD0600B14413
:1009D0003B784A4613704946BA68FB688A60CB6028
:1009E00000213800FFF73EFE00233B700022002369
:1009F000BA60FB6001214846FFF734FE2B0032004D
:100A000041465046FFF7C0FE020010322B00594607
:100A10004046FFF7B9FE0700AB685246991A002A14
:100A200002D0504604F0CCFD2E606F6024013419D2
:100A3000AC6003B0F0BCBB46B246A946A046F0BDD0
:100A4000074808F09DFD6A46A4E7044CADE7034C57
:100A5000ABE708F06DFD0026B9E7C046FFFFFF07D2
:100A60009C38011070B504000D00466883689E42F2
:100A700019D00B7833708A68CB68B260F3600021BC
:100A80002800FFF7EFFD00232B7000220023AA604F
:100A9000EB6001213000FFF7E5FD63681033636010
:100AA0006068103870BD0A003100FFF75BFFF7E7A0
:100AB000F0B5CE46474680B58BB006000D004B1E04
:100AC000DBB2012B15D9032D00D11CE100D9F2E0D6
:100AD000012D00D1FEE0022D00D003E137683C6813
:100AE0007D68A54200D102E1200000F029F9103410
:100AF000F7E70023039304930593022913D00368B7
:100B0000596903A8FFF7F8FE3768FC680437A74265
:100B100053D02100283103A8FFF7A4FF200008F0DC
:100B20009BFB0400F3E7036859681B68C91A0911A5
:100B300003AC2000FFF7E0FE336818685B68984656
:100B4000FFF720FE07004046FFF71CFEA046C41B2F
:100B50002411002C31DD39004046FFF783FF1037A8
:100B6000013CF6E7089A002A41D16B4B6B4A6C496D
:100B70006C4802F09BF9089A002A3AD16A4B674AFE
:100B80006A49684802F092F9089A002A33D1684B02
:100B9000624A6849634802F089F9049B019318008E
:100BA0001038049000F0CCF806AB1B78022B2DD047
:100BB000012B53D006A800F0C3F8039B049A93427C
:100BC00067D01400103C237806AF3B70A268E3683E
:100BD000BA60FB6000212000FFF744FD0023237072
:100BE00000220023A260E3603B78012BBAD0022BE5
:100BF000C1D0032BC8D0082BCFD1089B002BCCD160
:100C00004D4B464A4D49474802F050F9089B186839
:100C10005C68FFF7B7FD07002000FFF7B3FDC41BBA
:100C2000241105E0390003A8FFF71CFF1037013C31
:100C3000002CF7DC089B98461B68994643465F6882
:100C4000B945B7D04C4603E0200000F079F81034E5
:100C5000A742F9D143464A465A60ABE7089FFC6871
:100C60000437A74209D02100283103A8FFF7FAFE74
:100C7000200008F0F1FA0400F3E7089CA1682000C6
:100C800000F0C4F80023A360221DE26022616361CA
:100C900090E7039C049FA74204D0200000F050F886
:100CA0001034F8E70398059B191A002800D10AE7C9
:100CB00004F086FC07E7082D14D13368186899689A
:100CC000091A002801D004F07BFC3068202104F0D0
:100CD00077FC07E03068816800F098F830681821E8
:100CE00004F06EFC0BB0C0BCB946B046F0BD38682D
:100CF000B968091A002801D004F062FC30680C21A0
:100D000004F05EFCEEE7306808F0D2FC3068182191
:100D100004F056FCE6E7C04698350110D0350110C6
:100D2000B245000090330110F4370110B3450000C4
:100D30002C380110B445000064380110B54500009E
:100D400010B504000378012B0CD0022B13D0032B19
:100D50001AD0082B21D0217820000830FFF7A8FEF8
:100D6000200010BD8268002AEFD1104B104A1149B3
:100D7000114802F09BF8A268002AE8D10F4B0C4AF8
:100D80000F490D4802F092F8A268002AE1D10D4BFC
:100D9000074A0D49084802F089F8A368002BDAD108
:100DA0000A4B034A0A49044802F080F898350110BA
:100DB000D0350110B245000090330110F437011016
:100DC000B34500002C380110B44500006438011010
:100DD000B545000070B504000D00012805D0002CB9
:100DE00002D1084B9D4208D070BD064B9942F6D106
:100DF00000210548FFF77AFCF1E70348FFF7A0FF61
:100E0000F2E7C046FFFF0000701C002070B506002E
:100E10000C0028E08368002B31D1244B244A25495B
:100E2000254802F043F88368002B2AD1234B204A3F
:100E30002349214802F03AF88368002B23D1214B43
:100E40001B4A21491C4802F031F88368002B1CD151
:100E50001E4B174A1E49184802F028F83821200076
:100E600004F0AEFB2C00002C1FD0E1683000FFF72F
:100E7000CDFFA568200028300278012ACAD0022AB6
:100E8000D1D0032AD8D0082ADFD001780830FFF764
:100E90000FFE220010322069230018339842DDD063
:100EA0009168013104F08CFBD8E770BD98350110D2
:100EB000D0350110B245000090330110F437011015
:100EC000B34500002C380110B4450000643801100F
:100ED000B545000010B502490120FFF77BFF10BDAA
:100EE000FFFF000070B584B004000D001E4B0360CE
:100EF000002343600621280000F0F6F81B49206813
:100F000007F0B4FF060010220021684604F044FBFD
:100F100080235B020093F8235B0201938023DB02B2
:100F20000293C0231B03029331000931F30109032B
:100F30000B4301930E490B402D062B430193802355
:100F40001B0302936B4632006168206807F0AAFF1A
:100F500021680A680123606883409A4313430B6049
:100F6000200004B070BDC04600002050C8380110F9
:100F7000FFFFFFE030B5426853009B18DB00D03321
:100F80001A0003689C46624480235B01134380225D
:100F900012061A601A60002105684468E2000432F3
:100FA000EB68D3400E221A4203D101310B4B994218
:100FB000F2DD0834A4006359DB436259D243934203
:100FC00009D9C360826083685B008360C3685B008B
:100FD000C360002030BDC2608360F4E720A1070039
:100FE00070B50500FFF7C6FF041C084904F020FA9D
:100FF000002809D1A86803F0FBFB054A054B03F064
:1010000086FB03F03DFC041C201C70BD000080BF6B
:1010100095D626E80B2E413E10B503F0EDFB0200FD
:101020000B000448044903F0C5FF044A044B03F0D5
:101030006EFB10BD3174D9928FF3F03F9A99999954
:101040009959304070B50500F020800004F04EFA48
:101050002860002803D000236B6000240EE0FEE728
:101060006B68DE002B689C4666442000FFF7D4FFC7
:10107000306071606B6801336B600134772C0EDC7B
:101080000C21200003F0BCF80029E9D00229E7D0A8
:101090000429E5D00729E3D00929EED1E0E72800AB
:1010A00070BDF0B585B007000292039300260023BF
:1010B00000240093019402E00136009401957B68BE
:1010C000B3420DDDF3003A68944663441C685D68E2
:1010D000029A039B2000290003F076FB0028EBD046
:1010E0000098019905B0F0BD10B58300084A9446F8
:1010F00063441C6840226240C02414408022520194
:1011000013431C60C000034B9C466044416010BD0B
:1011100004C001400040014080000B4B9C466044ED
:1011200000290DD00823002A0CD0042213430268A2
:1011300053400C2213408022520110430360704739
:101140000023F0E70022F1E704C00140002909D0A4
:101150008000094B9C46604480239B011843402338
:10116000036070478000044B9C466044C0239B0191
:10117000184340230360F4E704C0014010B5012385
:101180008340D0221206936293610521FFF7ACFFE2
:1011900010BD0000034B1B6802201840431E9841FD
:1011A000C0B2704700C00640EFF3108072B6034B28
:1011B0001B68002BFBD0BFF35F8F70472C0100D062
:1011C000BFF35F8F024B00221A6080F310887047D4
:1011D0002C0100D0F8B506000C001500FFF7E4FF65
:1011E000E308F718F15C07222240012393400B42E9
:1011F00005D1DBB20B433B70FFF7E2FFF8BD2100E6
:10120000280001F0EDFE0000002307E0054A9A18CF
:101210009200BFF35F8F0021116001331F2BF5D9BE
:101220007047C04640000034054A1078431CDBB2CA
:101230001370172B02D9130010221A707047C04682
:101240001413002010B50100024A0348FFF7C2FF43
:1012500010BDC046E4380110D41F0020074B9B6826
:10126000103080001950BFF35F8FBFF35F8F044BC6
:101270000021196082F310887047C04600ED00E03D
:10128000240100D010B5091A081F0A4B9C4661447E
:10129000094A914208D8C30706D440104005400DC2
:1012A000064B184380B210BD054B064AA3210648E1
:1012B00001F0FCFDFC070000FE0F000000E0FFFF56
:1012C00004390110743B01103439011010B5091AAA
:1012D00004394C08090B08D14905490D064A114348
:1012E0000180064B2343438010BD054B054AAB21CB
:1012F000054801F0DBFDC04600F0FFFF00F8FFFFEE
:1013000090390110483B011034390110012383400A
:10131000034A10681840431E9841C0B27047C04647
:1013200000E100E0002904D0034B1860034B186073
:101330007047034B1860FBE780E200E000E100E04B
:1013400080E100E010B5012383401800FFF7EAFFB9
:1013500010BD0000024B9B6810308000C0587047E1
:1013600000ED00E070B504000D00EFF3108672B6DA
:101370000C4B1B68002BFBD0BFF35F8F2000FFF7E7
:10138000E9FF094B984201D0A84205D1320029005B
:101390002000FFF763FF70BD044B054A8621054816
:1013A00001F084FD240100D0CD010010A03901100E
:1013B000903B011034390110F0B5CE46474680B558
:1013C00083B006000D00EFF3108872B6564B1B6811
:1013D000002BFBD0BFF35F8F544B9A68340010345E
:1013E000A300D758524B9F4207D0AF4200D198E09C
:1013F0000197504BFB1A2F2B09D942463900300078
:10140000FFF72CFF03B0C0BCB946B046F0BD3000BA
:10141000FFF77CFF814600213000FFF793FFBFF309
:101420005F8FEFF30581002901D08C4211D1012398
:10143000019C9C430022A368AB4212D00622A25614
:10144000002A0DDB53009B189B002200394CE41846
:10145000F1E73621384B394AFF31394801F026FD92
:101460002200AB4256D106256557002D38DB6B00B4
:101470005B199A002F4B9B189A68A260DA79E27187
:1014800006229A56A2719B795BB2002B0FDA2D4887
:10149000A0806B005B199B00264AD3182A4A11785A
:1014A0009971157049463000FFF74CFFA5E7201DE4
:1014B0006B005B199B001F4A9B181A1D9B88D90A59
:1014C0001C2907D15B055B15023359005118FFF742
:1014D000D9FEDDE71D4B1E4AB121194801F0E6FC9B
:1014E000002912D1002A0ED0FF239371194B93804B
:1014F000154A1378A371184B0E49641A644163436B
:101500001B0D1370CEE70A4FF2E7201D1349FFF7BA
:10151000DDFEC7E76A21124B084AFF31084801F097
:10152000C5FC034F69E7C046240100D000ED00E090
:10153000CD01001018130020B43A0110603B0110D7
:101540003439011001BD00006F2602209C3A0110C1
:10155000803B011001BDFFFFAAAA0000521300202A
:10156000E83A011010B5032304009C43064A944650
:10157000644422681840C000FC3383409A4313003F
:1015800081400B43236010BD00E400E070B50121F1
:1015900001432E4BCB1A2F2B28D8EFF30583002BBA
:1015A0002BD0EFF3108C72B6294A1268002AFBD0B8
:1015B000BFF35F8F274A0400244D641B64416243DC
:1015C000120D54B2244A92689B00D2588A421BD012
:1015D0000022032A32D853009B189B001B49CB18CA
:1015E0009B795BB2A3421FD00132F2E7C7211B4BAC
:1015F0001B4A49001B4801F059FC92211A4B184A1A
:10160000FF31184801F052FC134A92681749D15033
:10161000174B1A7882711C70BFF35F8F0C4B00223E
:101620001A608CF3108870BD0D0053009918890062
:101630006918FF268E710F4A8A80E9E7D1210E4B87
:10164000074A4900074801F031FCC0461813002042
:10165000240100D0AAAA000000ED00E0F03A011039
:101660002C3B011034390110183B0110CD01001042
:101670006F26022001BDFFFF243B01100022044B16
:1016800002E0044902C30132072AFAD97047C04672
:1016900000E400E080808080024B9C466144890029
:1016A000016070474000003410B50400FFF7BCFD36
:1016B00001002000FFF7F0FF01235B426360BFF3EE
:1016C0005F8F10BD10B50400FFF7AEFD01002000D4
:1016D000FFF7E2FF01235B42636000232372BFF345
:1016E0005F8F10BD70B505000C00080000F0F4FE1F
:1016F0000949200000F034FEFFF796FD074B9C4699
:101700006044800068602C75D0231B061B786B75C5
:10171000A400034BE55070BD211A001040000034B6
:101720005020002010B5084B1A68EFF3108172B6F4
:101730001368002BFCD0BFF35F8F034804F08CFDCF
:101740000020002110BDC0461025002010B5002942
:1017500022D003681B7B99421ED8174B9C466144DC
:10176000090183689C4661440C684968002A19D0C5
:1017700003681B7B9A4215D883680F4884466244ED
:1017800012019A1810685368020001208B4201D898
:101790000ED00020C0B210BD084B094A3C210948B8
:1017A00001F084FB054B064A3C21064801F07EFB14
:1017B000A242EFD8EDE7C046FFFFFF0F603D0110EA
:1017C000E03F01100C3D011010B500291ED0037B35
:1017D00099421BD84B005B18033B0468A446634442
:1017E000002919D0002A1DD0914221D0002A25D0ED
:1017F000047BA24222D804685000801803382018C5
:101800008170197800291FD11A7010BD104B114A30
:101810006821114801F04AFB104B114A6F310E4804
:1018200001F044FB0F4B0E4A70210B4801F03EFBC8
:101830000D4B0B4A7121084801F038FB044B054A57
:101840006821054801F032FB41701A70DDE7C0469F
:10185000843D01104C400110A03D0110083E0110D4
:1018600028400110143E0110203E011070B5060002
:101870000D001400002914D0002A14D08068736869
:101880009847002806D0220029003000FFF79CFF6F
:10189000280007E02A0021003000FFF795FF200014
:1018A00000E0100070BD0800FCE70000F0B583B058
:1018B0000500009201930AAB1C780BAB1F78002C3B
:1018C00026D003685A7B944207D10123002B19D1FB
:1018D000002C3BD1200003B0F0BD002C0CD01A7BB3
:1018E000944209D81A6863001B19033BD3189B78EC
:1018F000002BEBD00123E9E73E4B3F4A68213F48EC
:1019000001F0D4FA3E4B3F4A67213F4801F0CEFA3E
:1019100003689C7B002CDBD012D01A7B94420FD83A
:1019200062001219033A19688C466244517899731F
:10193000002900D1D9730023937053701370C7E747
:101940002C4B2D4A68212D4801F0B0FA002C3AD0DA
:101950002B681B7B9C4236D82C4BE3181B01AA68D2
:1019600094466344009A1A60019A5A60089A9A60F1
:10197000099ADA602E68002C2BD030D0337B9C4241
:101980002DD863001B19033B326894466344002240
:101990009A705A701A70717B22003000FFF766FF50
:1019A0007073844200D095E7287D009A019B00F077
:1019B0001FFD061E01D0002F17D00C9B002B00D15D
:1019C00088E71E7086E7124B124A3C210E4801F050
:1019D0006DFA114B114AA521084801F067FA054B31
:1019E000054A6821054801F061FA2868210000F0E5
:1019F00037FFE2E7843D01104C400110A03D01108B
:101A0000383E0110584001100C3D0110FFFFFF0F40
:101A1000603D0110E03F0110083D01103C40011005
:101A2000F0B5DE4657464E464546E0B58BB00990C8
:101A3000002308938200B54BD658370052E0B44BD0
:101A4000B44A3F21B44801F031FAB44BB44A3C21C6
:101A5000B44801F02BFA002901D1002869D10021F6
:101A6000404600F0F3FEA04219D12A686B68069246
:101A70000793AB689846EB689A464346002B14D010
:101A8000002C18D03B681B7B9C4214D8631EFA685C
:101A9000D35C08931B0218433861002015E0A24B69
:101AA000A24A8E219F4801F001FAA14B9F4A922140
:101AB0009C4801F0FBF9994B9E4A4121994801F05D
:101AC000F5F900239A46984600207B68BFF35F8FA4
:101AD00000221A6086F310884346002B32D100287A
:101AE00000D10CE100F0F8FB02000B1EA7DB002088
:101AF0000021069007917868EFF3108672B60168AE
:101B00000029FCD0BFF35F8F396888464C7B002CDE
:101B1000D7D09AD0097B8C4297D8874965182D0178
:101B2000B9688C46654428686968801A994100291B
:101B300091DD2A686B68099800F05AFC00239A46E8
:101B40009846C2E7089B1B0223439946514618005A
:101B5000C04705000E007A68EFF3108B72B6136869
:101B600059424B41D9B2002BF9D1BFF35F8F002E00
:101B70001EDB002E46DD3B69002B47D04B456DD167
:101B800000F0AAFB02000B1E6EDB52197341002B02
:101B900070DB002B72DB0021049101310391029470
:101BA00051460191414600913800FFF77FFE4CE01D
:101BB0003B69002BDDD04B4514D1069A079B521B85
:101BC000B341002B14DB002B16DB00210491013103
:101BD0000391029451460191414600913800FFF76C
:101BE00065FE32E0554B514AA1214E4801F05EF9A5
:101BF00001225242524BE6E7454B464A3F214648B6
:101C000001F054F9002E01D1002DB4D13B68002C15
:101C100050D05A7B944237D1012100294AD1DA7B36
:101C2000002A4DD19A7B002A03D1DA7B002A5AD1AF
:101C30009C73DC73002C5CD03B681B7B9C4258D8A7
:101C4000FA68013C135D0133135500233B617A6848
:101C5000BFF35F8F13608BF3108843E7374B334A32
:101C6000A421304801F022F9294B2A4A3F212A4871
:101C700001F01CF901225242314B8AE7244B254ADC
:101C80003F21254801F012F9002C0DD01A7B944217
:101C90000AD862001219033A18688446624492789E
:101CA000002ABAD00121B8E7264B274A68212748E5
:101CB00001F0FCF8264B274AF621244801F0F6F8FB
:101CC000002A0AD0197B8A4207D851008A18033AA1
:101CD00019688C4662445470A4E71A4B1A4A68216A
:101CE0001A4801F0E3F81C4B1A4AFB21174801F08F
:101CF000DDF80A4B0F4A41210A4801F0D7F80BB032
:101D0000F0BCBB46B246A946A046F0BD502000201C
:101D10001C3C0110AC3F0110383C0110603D01102B
:101D2000E03F01100C3D0110603E0110C43F011066
:101D3000783E011004400110FFFFFF0F843E0110A8
:101D4000FFFFFF7F843D01104C400110A03D0110BA
:101D5000C03E011018400110E43E011010B50C4BBC
:101D60005B68002B04D00A210A48FFF795FC10BDE0
:101D7000074C2300084A1021206800F077FC03205C
:101D800000F09EFA03212000FFF7ACFCEBE7C04611
:101D900060130020102500204D17001010B5064BD1
:101DA0005B68002B01D0044810BD044B044A5E213F
:101DB000044801F07BF8C04660130020F83E011093
:101DC000EC3F01100C3D0110F0B5DE4657464E4683
:101DD0004546E0B58BB0804616001F00149B9A461E
:101DE000159B994616AB1B789B461F2302AA944667
:101DF000634400221A702BE0002809D04246126882
:101E0000127B904204D8421E4146C9688A5C41E078
:101E1000404B414A4121414801F048F807984CE0C5
:101E2000361BAF41002F07DB002F11DA3C4B3D4A38
:101E30003F213D4801F03AF8012676423B4FF3E757
:101E4000374B384A3F21384801F030F8002F4FDB3C
:101E500043465A68EFF3108472B6136859424B41F7
:101E6000D9B20791002BF8D1BFF35F8F1F3302AABD
:101E70009446634404930023039302934B460193D7
:101E80005346009332003B004046FFF70FFD031E10
:101E9000B2D1020041464968BFF35F8F00250D6053
:101EA00084F31088002B29D01F2302A98C46634499
:101EB0001B78002BB2D112021043002B20D05B46BE
:101EC000002B1DD04946D04704000D0003000B43F2
:101ED0001DD00029A4DB00F0FFF906000F1EAFDBC8
:101EE00036196F41002FB1DA012676420F4FADE768
:101EF0000B4B0C4A3F210C4800F0D8FF0120404218
:101F00000BB0F0BCBB46B246A946A046F0BD079850
:101F1000F6E7C046603D0110044001100C3D011081
:101F20001C3C0110AC3F0110383C0110FFFFFF7F4B
:101F3000F8B50400002900D162E04268EFF3108593
:101F400072B6136858424341D8B2002BF9D1BFF39F
:101F50005F8FCBB22268567BB3421BD10120002891
:101F600048D0206988422BD0090AC9B2002B2ED054
:101F70002068007B83422AD8581EE668305C88427D
:101F80002BD000206368BFF35F8F00221A6085F3B7
:101F90001088F8BD002B0DD0167BB3420AD85E0026
:101FA000F618033E1768BC466644B678002ED6D0B5
:101FB0000120D4E7134B144A6821144800F076FF3F
:101FC0002C21134B134AFF31134800F06FFF134BC2
:101FD000134A4121104800F069FF1900100000F079
:101FE0003FFC0028CED199210E4B0A4A49000A48ED
:101FF00000F05CFF23698B42C4D100232361C1E759
:102000000020C6E7843D01104C400110A03D0110A6
:102010001C3F0110943F01100C3D0110603D011068
:1020200004400110403F0110F0B587B006000F00DA
:10203000EFF30583002B1FD196246442E517A41902
:102040007D418D4202D803D1844201D9002400256C
:10205000002D14DB0494059500F03EF902000B1EE0
:1020600013DBA41A9D41002D17DC14D03000390079
:1020700000F03EF907B0F0BD204800F0B1FF204B62
:10208000204A3F21204800F011FF1D4B1D4A3F21EF
:102090001D4800F00BFF002CE8D0FFF77FFE002367
:1020A00002930193194B0093049A059BFFF78CFE52
:1020B000002812DADAE7002300E00023002BD5D154
:1020C000134B1A68EFF3108172B61368002BFCD023
:1020D000BFF35F8F0E4804F05BF80499059A0D4B2F
:1020E0005B6A9A42E9D80B48806A884203D29A42D6
:1020F000E1D00123E2E70123E0E7C046443F0110BD
:102100001C3C0110AC3F0110383C01102517001099
:10211000102500200040054070B504000D0000F0BF
:10212000DBF802000B1E0ADB200029008018594151
:1021300000290ADB00290CDBFFF776FF70BD084B96
:10214000084A3F21084800F0B1FE012040420749FB
:10215000F0E7034B034A3F21034800F0A7FEC046C7
:102160001C3C0110AC3F0110383C0110FFFFFF7F09
:1021700010B5FA2292000023002103F0F3F8FFF7D4
:10218000CBFF10BD70B584B005000C00EFF30583E4
:10219000002B1ED1FFF702FE002302930193224B76
:1021A00000932A002300FFF70FFE061E23DD20BF49
:1021B000FFF7F4FD3100FFF7BBFE1C4B5B6A9C424E
:1021C0002DD81A4A926AAA422CD29C4225D00120CC
:1021D00026E0164B5B6A994209D8144A926A8242F9
:1021E00007D2994201D001201AE0002018E0002017
:1021F00016E0012014E00D4B5B6A9C4209D80B4AA3
:10220000926AAA4207D29C4201D0012008E0002035
:1022100006E0002004E0012002E0002000E00020B1
:1022200004B070BD0120FBE72517001000400540F9
:1022300070B5EFF305801038EFF3108C72B61A4BBF
:102240001B68002BFBD0BFF35F8F0122130083407C
:1022500016494B6316490B60164909780C00C440B7
:10226000224214D0114A546A8200134D52599442AA
:1022700006D38200114C125999430E4B197007E096
:102280000A4A031D9B0099589950002200E0002241
:10229000BFF35F8F044B002119608CF31088002A74
:1022A00000D0904770BDC046280100D000400540D6
:1022B0003C7005407026022014250020BC1E002022
:1022C00010B50100024A0348FEF784FF10BDC04666
:1022D000784001106E260220044B5B6A034A906A24
:1022E0001900536A9942F9D17047C0460040054031
:1022F000084B5B6A01E0074B5B6A8B42FBD301E052
:10230000044B5B6A8B4203D1024B9B6A8342F7D337
:102310007047C0460040054070B504000D00FFF74F
:10232000DBFF02000B0020002900801859418B427E
:1023300002D804D1824202D901204042C1170029AB
:1023400002DBFFF7D5FF70BD024B034A3F21034874
:1023500000F0ACFD1C3C01103C410110383C011068
:1023600070B504000D00EFF3108672B61B4B1B68AE
:10237000002BFBD0BFF35F8F002D1CD02000FEF799
:10238000E9FF174B83420BD019002000FEF7EAFF4C
:1023900001212000FEF7D6FF0123A340114A13605C
:1023A000A400114BE550BFF35F8F0C4B00221A6065
:1023B00086F3108870BDA2000B4B0021D150012282
:1023C000A2400A490B7893430B7005492000FEF7A1
:1023D000F3FF00212000FEF7B5FFE4E7280100D05D
:1023E0003122001038600540BC1E002070260220FB
:1023F000F0B5DE4600B584B00400150001921E0061
:102400000293FFF769FF03958E4202D84ED18542B1
:102410004CD9EFF3108B72B6274B1B68002BFBD007
:10242000BFF35F8F254A17780125A540EBB23B43E8
:102430001370234B5D63221D92000199D150A200BD
:102440002049029850501B6A2B4212D11C4B1B6C26
:102450002B4208D00020BFF35F8F174B00221A6079
:102460008BF3108823E0184B184AC521184800F058
:102470001DFDFFF731FF8E4214D802D1039B83422A
:1024800010D80E4B1B78BB420ED00D4B1D625D6306
:102490001F2004400123A3400E4A1360074B1F7006
:1024A0001E38D8E70020D6E70120D4E7012004B089
:1024B00080BCBB46F0BDC046280100D0702602207B
:1024C00000400540142500209C40011020410110CF
:1024D000C040011080E200E0EFF3108C72B60B4BAD
:1024E0001B68002BFBD0BFF35F8F01238340084A9A
:1024F000136208490A789A430A70BFF35F8F034B4F
:1025000000221A608CF310887047C046280100D062
:10251000004005407026022010B500291ED0037B24
:1025200099421BD84B005B18033B0468A4466344E4
:10253000002919D0002A1DD0914221D0002A25D08F
:10254000047BA24222D80468500080180338201867
:102550008170197800291FD11A7010BD104B114AD3
:102560006821114800F0A2FC104B114A6F310E484F
:1025700000F09CFC0F4B0E4A70210B4800F096FCBB
:102580000D4B0B4A7121084800F090FC044B054AA2
:102590006821054800F08AFC41701A70DDE7C046EA
:1025A000843D01105C420110A03D0110083E011065
:1025B00048420110143E0110203E011070B5060083
:1025C0000D001400002914D0002A14D0806873680C
:1025D0009847002806D0220029003000FFF79CFF12
:1025E000280007E02A0021003000FFF795FF2000B7
:1025F00000E0100070BD0800FCE7000010B50023EB
:10260000437301338373037BC3730123027B9A42B9
:1026100014D9002B0CD0027B934209D85A00D2184F
:10262000033A01688C4662440133DBB25370EDE734
:102630000B4B0C4A68210C4800F038FC002A09D0EA
:10264000924207D8016853009A18033A8A18002367
:10265000537010BD024B034A6821034800F026FC6A
:10266000843D01105C420110A03D011010B50173C2
:1026700042608360FFF7C2FF10BD000070B5040028
:10268000081E00D170BD002934D0237B994231D877
:102690004B005B18033B2268944663445A78002A37
:1026A000F0D02DD0237B9A422AD853009B18033BAD
:1026B00021688C4663445D7800215970002825D03C
:1026C000237B984222D843001B18033B21688C4689
:1026D00063440021597001002000FFF76FFF0600DE
:1026E00029002000FFF7CAFF020031002000FFF799
:1026F00065FFC7E7084B094A6821094800F0D6FB87
:10270000054B064A6821064800F0D0FB024B034AFD
:102710006821034800F0CAFB843D01105C420110AF
:10272000A03D011070B505000C00160000292FD047
:1027300034D0037B994231D84B005B18033B0268CD
:10274000944663445A78002A2ED19A78002A31D1CF
:102750001978FFF793FF0300002E0AD0EA7B002AC6
:102760002ED1AA7B002A03D1EA7B002A3BD1AC738D
:10277000EC73002B3DD1002C4FD02B7B9C424CD8CE
:102780002B6861000C19033C1C190023637070BD99
:10279000254B264A3821264800F088FB254B264A3F
:1027A0006821264800F082FB254B204A3A21204828
:1027B00000F07CFB234B1D4A3B211D4800F076FBBB
:1027C000002A0AD0297B8A4207D851008A18033A86
:1027D00029688C4662445470C3E7164B164A682138
:1027E000164800F063FB184B104A4221104800F0D5
:1027F0005DFB002B0BD02A7B934208D843001B18AB
:10280000033B2A689446634400229A70B3E7094B5D
:10281000094A6821094800F049FB064B064A68212D
:10282000064800F043FBC0465441011034420110F9
:102830005C410110843D01105C420110A03D01107B
:10284000B0410110D8410110E43E011070B5040000
:102850000A00457B2900FFF765FF6073280070BD03
:1028600070B50400002967D0437B8B420ED000294D
:1028700011D0037B99420ED84B005B18033B0268D2
:10288000D0188378002B0CD1002056E00121FFF7EF
:10289000DDFF012051E0294B294A6821294800F039
:1028A00005FB002B20D0227B93421DD85A00D31861
:1028B000033B2268D2182568EB5C8B421AD0002BB0
:1028C0001BD0227B934218D85A00D318033B2268AE
:1028D000D21853788B4216D0002BF0D11A4B1B4ADA
:1028E0006B211B4800F0E2FA144B154A6821154889
:1028F00000F0DCFA4378137007E0104B104A6821AF
:10290000104800F0D3FA437853700023837043706B
:1029100001222000FFF706FF0200617B814205D003
:102920002000FFF74BFE6073012006E0094B074AC9
:102930007121074800F0BAFA002070BD843D0110F3
:102940005C420110A03D0110243B01101C4201100B
:102950005C410110FC41011070B5046BE30701D428
:10296000200070BD02003032C0239B0113430A4A8D
:102970001A60456A826AAD01AD18AD02062000F00A
:10298000BDF9064901F064FC0100280001F060FC7B
:102990000021FFF7C1FCE3E7010300004E0E000039
:1029A00070B504000E001500FFF7D6FF22002C3290
:1029B000E16A4E40354080235B0113431D60206374
:1029C00070BD000070B505000C00062000F096F9FF
:1029D000C000210001F03CFCC60908D00E4B9E420D
:1029E00016D87F23184001303400460800E0012447
:1029F0006C62AE62002200212800FFF7D1FF0620A2
:102A000000F07CF98000A101891901F021FC70BD62
:102A10000026024CECE7C046FEFF0000FFFF00006E
:102A200010B505394901013AD2001143002B09D0F4
:102A300002220A43012B07D0002111436E22FFF727
:102A4000AFFF10BD0022F4E70421F6E7002909D00A
:102A50000A22064B9C466044434258414000044BC6
:102A6000C252704780225200F3E7C0460080FCBF8C
:102A70002425002070B505000C00062000F03EF96A
:102A8000061E27D0164B9D4226D08022D203154B1E
:102A90001A60154B1A60154B9B6811009943FAD1C7
:102AA00000212800FFF7D2FF21002800FFF78AFF4E
:102AB00006000023012208212800FFF7B1FF2A00A9
:102AC0002C3280239B01134310221A60084B2B6386
:102AD0000323AB64300070BD80221204D7E7C046E8
:102AE0000080034000E0004000F0004000C00040D3
:102AF00001030000F8B5DE4657464E464546E0B5B0
:102B000005000F0092460A9A934250D31A0E91463E
:102B10001E020A9A00233000494601F0D7FB804686
:102B20006C006419A400304B9C4664446368834283
:102B300000D260602B1FDBB29B46012B3DD9C02326
:102B40009B012343802212011A60AB00274A995847
:102B5000002907D0506901F07BFB431C5800C018C6
:102B60000338FDD253465A0123685A40E0231A40E5
:102B700080235B0123431A605A46012A28D9802307
:102B80009B012343802212011A6043466360424640
:102B900000233000494601F099FBAD00134B58511A
:102BA0000120F0BCBB46B246A946A046F8BD104B7A
:102BB000104A3321104800F079F9012FBFD1C0230A
:102BC0009B01234303221A60A368DB07FCD5C9E7F6
:102BD0002168794003220A401A60A2680123BB40A1
:102BE0001342FAD0CBE7C04600800040D81F002037
:102BF00068420110DC4201107C42011030B583B004
:102C00000C2000F011F9FEF7C5FA00280DD00023C2
:102C100004E099002D4A2E4888500133092BF8D939
:102C20002A4B2C4A5A6203B030BD2B4B00229A67C4
:102C300000F002F9294B01221A60274B5B6C012B33
:102C4000FBD1274B03221A60234B9B6B012BFBD13B
:102C5000013300930433234A0121234800F054F840
:102C600005230093214A0121214800F04DF8214B12
:102C70000093002202210420FFF73CFF1E4D009527
:102C80002B00002201210520FFF734FF104C009497
:102C90002300002200210720FFF72CFF00942300CF
:102CA000002200210820FFF725FF0A4B0093230094
:102CB000002200210920FFF71DFF00952B000022B4
:102CC00000210620FFF716FFADE7C046D81F002001
:102CD000006CDC021BB70000008000403CB00040EC
:102CE00030B00040002F685900800240008C8647B9
:102CF00000C00240001BB700405973078000014B21
:102D0000C0587047D81F0020F0B5C64600B5040073
:102D10000E0017001D00374801F09AFA8046364B26
:102D2000FA18364B9A4239D80100380001F090FA6F
:102D30000200103A98235B009A4235D86B1E062B8E
:102D400038D8069B013B062B34D83F09474537D37B
:102D50002D04069B1A0315432368002B36DB284BF2
:102D60009C4244D080225201264B1A60264B1A60A6
:102D7000264B9B6811009943FAD12660A060231D61
:102D8000C02292011A43212313602368002BFCDA2E
:102D9000E5600823136080BCB846F0BD1C4B1D4A9B
:102DA00011211D4800F082F81C4B1A4A19211A48BB
:102DB00000F07CF81A4B174A1C21174800F076F8EF
:102DC000184B144A2321144800F070F822683F235E
:102DD0001340B342C3D1A3681B051B0D8342BED170
:102DE000E368EE22D2021340AB42B8D1D3E780228F
:102DF0009201B9E7001BB70080E84BD380F8A932F5
:102E000000C0024000E0004000F0004000C0004070
:102E1000EC4201102C4401104C430110A843011056
:102E2000C44301101044011080239B000343014A56
:102E3000D362704700800540064BAA2212011A6037
:102E40002F22DA60044B054A1A60024B5B68002BA4
:102E5000FBDA7047004002400060024000B0FA0018
:102E600000BEFDE703000A4A1268002A08D0084A9B
:102E70001068C318074A9A4206D3054A1360704780
:102E8000034A05491160F2E701204042F7E7C046D6
:102E90004C200020000004207426022000207047EF
:102EA00001204042704710B5FFF7DAFF10B582B03D
:102EB0000C001900002A0CD0084B002A0BD00192FC
:102EC000009323000200064802F042FD0120FFF7B4
:102ED000C7FF044BF1E7034AF1E7C046384401104D
:102EE000484401104444011070B52B4B2B4A1A6022
:102EF0002B4B2C4A1A602C4B9A682A4B9343FAD1DD
:102F00002A4C01E008CC9847294B9C42FAD3FFF7A2
:102F100075FE234B274A1A60234B9B68DB43DB017A
:102F2000FAD1254B40229A675A671A67DA66234C12
:102F300009E0234B234A87212348FFF7B7FF2000EE
:102F4000FEF7B2FB0834214B9C4209D22368002BC8
:102F5000F5D0012BEDD12000FEF7B4FB0C34F2E7E5
:102F60001B4CA1681B4DC022280002F01BFBA56072
:102F7000EFF30583002B00D000BEFEF745F9FEF706
:102F80007DFBFEF7EBFE144C01E008CC9847134B99
:102F90009C42FAD370BDC04600E00040BFCDFBFEAE
:102FA00000F00040FE7F3C0000C00040341C0020C8
:102FB000441C0020FFFFFF0100F00140241C002002
:102FC000784401101845011098440110341C002069
:102FD00000ED00E000000020441C0020701C0020D8
:102FE0000FB400B583B0084802F082FC049B002BAC
:102FF00007D005A90191180002F08AFC034802F0ED
:1030000077FC0120FFF72CFFF84401101861011034
:1030100010B50148FFF7E4FF084501109A4200D2BD
:1030200088547047704710B5002802D00B68496873
:10303000984710BD0100002007E083001B185B00CB
:10304000501C08601078C01830380A681378303B7C
:10305000DBB2092BF1D97047F0B5DE4657464E4634
:103060004546E0B583B093461F000C9B9A460D9CE5
:103070000E9B99460F9B9B0703D0B8460F00060096
:1030800022E00192A34688464E46B9460700B44264
:1030900007D2551C4B4641462020B84701342A0030
:1030A000F5E73D004F465C46019B9B46B1464646D0
:1030B000B84637002E0007E0013C551C5346185D0A
:1030C00043463900B0472A00002CF5D135003E00B8
:1030D00047460F9B9B0707D4100003B0F0BCBB46CC
:1030E000B246A946A046F0BDB0464E46B9462F00AE
:1030F0005D46531BB342EFD2541C4B464146202041
:10310000B8472200F5E7F0B5CE46474680B585B012
:10311000944698460C9D0D9C0EAB1B789946109AD0
:10312000119B129EB7071CD4002B0CD0F7070AD5B1
:103130004F46002F02D10C37374204D0013B02E04A
:1031400030272F550134944201D21F2CF8D9F707AC
:1031500007D59C4205D21F2C03D830272F550134A8
:10316000F5E7F70615D5770505D4002C03D0944272
:1031700024D09C4222D00F9A102A2BD00F9A102ACA
:1031800030D00F9A022A35D01F2C02D830222A556F
:1031900001341F2C05D84A46002A31D02D222A5549
:1031A0000134039602930194009543466246FFF76B
:1031B00053FF05B0C0BCB946B046F0BD621E012C3D
:1031C00006D00F9F102F01D01400D4E7023CD2E7A5
:1031D0001400D0E7B206D1D41F2CCFD878222A55BC
:1031E0000134D1E7B206CCD51F2CCAD858222A55B3
:1031F0000134C9E71F2CC7D860322A550134C3E710
:10320000720703D52B222A550134CAE73207C8D5E5
:1032100020222A550134C4E7F0B5DE4657464E4613
:103220004546E0B593B081468A46089209931CABA7
:1032300010CB1B789B461E9D219B9846002C03D1EA
:10324000102342469A4390468023DB0046461E40A8
:1032500042461A4212D0002C22D000260EE0303313
:10326000D9B2771C0AAB99552900200000F0F0FF75
:10327000AC4216D31F2F14D83E00040029002000B2
:1032800000F0E6FFCBB2092BE9D94246920605D5FC
:103290004121C918C9B20A39C9B2E2E76121F8E788
:1032A000270043460693209B05931F9B0493039599
:1032B0005B46029301970AAB0093099B089A51461B
:1032C0004846FFF720FF13B0F0BCBB46B246A94604
:1032D000A046F0BDF0B5DE4657464E464546E0B541
:1032E00095B0089009910A920B931E9E1F9C20ABEB
:1032F0001B789B46229B9946239D269B9A4633002A
:10330000234303D1103352469A4392468023DB0075
:1033100057461F4052461A4219D0330023432DD03E
:10332000002714E03033DAB27B1C98460CABDA5538
:103330004A462B003000210000F0C8FFA5421FD8EC
:1033400019D043461F2B1BD8474606000C004A469F
:103350002B003000210000F0B9FFD3B2092BE1D9D6
:103360005246920605D54122D218D2B20A3AD2B2BA
:10337000DAE76122F8E7B145E3D901E00023984696
:1033800053460693259B0593249B04934B46039336
:103390005B460293434601930CAB00930B9B0A9A46
:1033A00009990898FFF7AFFE15B0F0BCBB46B246CE
:1033B000A946A046F0BD0000F0B5DE4657464E4691
:1033C0004546E0B591B083468A460C9298461A9CD1
:1033D00008941B9D099522002B002000290001F074
:1033E000F8F9002800D0E5E001225242D74B200036
:1033F000290001F0E9F9002800D0DBE00122524267
:10340000D34B2000290001F0C9F9002800D0D1E0F9
:1034100000220023089E3000099D290001F0BEF91A
:10342000002800D0DDE008980999069007918023D4
:10343000DB001E9A1A400D921E9A1A4201D10623F1
:103440001C930698079904000D000A000600024329
:1034500000D1D1E0080D4005400DBE4CA4466044AB
:103460000A03120BBC4B13431F0001F0C5F9BB4A02
:10347000BB4B01F04CF9BB4ABB4B01F029F90400EE
:103480000D000022B94B3000390001F01CF9B84A98
:10349000B84B01F03CF902000B002000290001F0BC
:1034A00017F901F0C1F9814601F0A6F904000D00F9
:1034B000B14AB24B01F02BF90022B14B01F008F9EF
:1034C00001F0B2F90600AF4AAF4B2000290001F02D
:1034D0001EF904000D00300001F08EF9AB4AAC4B30
:1034E00001F015F902000B002000290001F0EBF8B3
:1034F00004000D0002000B0001F009F90A900B9185
:10350000A44BF31800261F0522002B0020002900E1
:1035100001F0DEF80E900F9122002B000020802198
:10352000C90501F0D0F804000D0000229A4B0A985A
:103530000B9901F0D2F80022984B01F0C9F8020073
:103540000B000A980B9901F0C8F80022944B01F087
:10355000BFF802000B000A980B9901F0BEF80200B8
:103560000B002000290001F0B3F802000B000E98B8
:103570000F9901F0B2F80022774B01F0A9F8320060
:103580003B0001F0C4F806000F0004000D00069A8D
:10359000079B01F019F9002830D001235B429C46BB
:1035A000E14400227D4B3000390001F096F8040020
:1035B0000D0023E01E9B04931D9B03931C9B029311
:1035C000089A099B0092019343460C9A514658462B
:1035D00000F0FCF811B0F0BCBB46B246A946A046CC
:1035E000F0BD0023002406930794069680231B0653
:1035F0009C46654407951AE7002399464B4663337A
:10360000C62B1ED804261E9B1B0526D52B00234344
:103610000FD0644A644B0698079901F0CDF8002852
:1036200079D00022614B0698079901F0B7F800287D
:1036300071D01C9B4B4506DD4A46981A431E1C93CD
:1036400003E00526DFE700231C938023DB001E9A9E
:103650001A431E920026002399461D9B9E4264D267
:103660009F1B02231E9A1A400A921E9A134202D0EE
:10367000002E00D000274B46002B07D022002B0045
:103680000698079901F029F8069007910022002377
:103690000898099901F082F8002848D1444B1E9AF5
:1036A0001340049303971C9B0293069B079C009373
:1036B000019443460C9A5146584600F087F8002E74
:1036C00000D187E71E9B9B063DD54525441C4346FC
:1036D000020051462800D8474B46DA179B18534042
:1036E00005220592013E0496002203920A320292BC
:1036F0004A46D00F01900093434622005146584657
:10370000FFF78AFD0A9B002B00D163E702005F46AA
:103710000C9E1D9D54E01C9B002B9ED00D9B002BEE
:103720009BD01C9B013B1C9397E7002799E7069CC5
:10373000079D2200290080200006844661440B007A
:1037400006920793AAE76525C0E7C046FFFFEF7F13
:10375000FFFFEFFF01FCFFFF0000F03FFB799F50F0
:103760001344D33FB3C8608B288AC63F0000F83F9C
:1037700061436F63A787D23F71A379094F930A40D2
:103780000000E03F1655B5BBB16B0240EF39FAFEC1
:10379000422EE63FFF03000000002C4000002440C2
:1037A000000018402D431CEBE2361A3F80842E4166
:1037B000FFF7FFFF541C434651462020B847220024
:1037C000931BAB42F6D3100004E7C046F0B5DE46CB
:1037D00057464E464546E0B595B00690079193464C
:1037E0009946209F1E9A1F9B1000190000F0F1FFC0
:1037F000002831D101225242BF4B1E981F9900F080
:10380000CDFF002837D101225242BC4B1E981F9990
:1038100000F0DAFF00283DD10022B94B1E981F9915
:1038200000F0D2FF002850D10022B64B1E981F99FD
:1038300000F0B4FF002848D1002200231E981F99F1
:1038400000F0ACFF002850D100239846229B5B0576
:1038500000D4B6E0002458E0229B0393219B0293FE
:1038600003230193A84B00934B465A4607990698A9
:10387000FFF7F2FB0EE1229B0393219B02930423AB
:103880000193A24B00934B465A4607990698FFF7BF
:10389000E3FBFFE00423229A1A4022990B4210D046
:1038A0009B4B002A0FD00422229903912199029167
:1038B000019200934B465A4607990698FFF7CCFBB6
:1038C000E8E0944BEDE70322EEE7229B0493219B73
:1038D000039302971E9B1F9C009301944B465A46EC
:1038E00007990698FFF768FDD4E01E9A1F9B0020F9
:1038F000002100F0E8FE1E901F9101239846A5E7E5
:103900000CAB30221A55013F01341F2C01D8092F6E
:10391000F6D81E981F9900F087FF050000F06CFF95
:1039200002000B001E981F9900F0CDFEFA007A4BA2
:103930009B181A685B680A920B9300F0E8FE0890E7
:10394000099100F095FF060000F052FF02000B0005
:103950000898099900F0B7FE0890099100226F4B72
:1039600000F032FF00282ED00136300000F040FF7A
:1039700002000B000A980B9900F016FF002801D0F6
:1039800001350026002F2CD1280000F035FF020061
:103990000B001E981F9900F096FE06000F000022F3
:1039A0005E4B00F0FBFE002846D100225B4B30004E
:1039B000390000F009FF00283ED1EB073CD5013566
:1039C0003AE0062746E70022544B0898099900F090
:1039D000E5FE0028D6D1002E01D0F307D2D501365E
:1039E000D0E7AA461F2C11D8013F0A21300000F071
:1039F0002FFC651C30310CAB19550A21300000F04A
:103A000027FC092E0ED906002C00EBE755461F2C8B
:103A10000CD87B1E002F09D00CAA302111551F0095
:103A20000134F4E72B0055461C00F0E71F2C03D8A7
:103A30000CAB2E221A5501341F2C10D80A21280055
:103A400000F0DEFB661C30310CAB19550A21280052
:103A500000F0D6FB051E01D03400EDE7340003234F
:103A6000229A1340012B1CD01F2C06D84346002B52
:103A700032D00CAB2D221A550134229B0393219B8B
:103A8000029301940CAB00934B465A460799069853
:103A9000FFF7E2FA15B0F0BCBB46B246A946A04615
:103AA000F0BD219B002B13D04346002B02D10C33D9
:103AB00013420FD0219B013B2193190003E00CAB73
:103AC00030221A5501348C42CED21F2CF7D9CBE7C5
:103AD0002199F8E72199F6E7229B5B0704D50CAB07
:103AE0002B221A550134C8E7229B1B07C5D50CAB06
:103AF00020221A550134C0E7FFFFEFFFFFFFEF7FE1
:103B000065CDCD4165CDCDC134450110384501109D
:103B10002C45011028450110204701100000E03F0E
:103B2000F0B5DE4657464E464546E0B593B0824670
:103B30008B4690461193002900D1EBE200275546B1
:103B4000119B1878002800D1E7E2252809D07C1CB9
:103B500043463A005946A847119B01331193270069
:103B6000EEE7013311930024119A11780B00203BEA
:103B7000D8B2102803D88300D048C3589F460B0002
:103B8000303BDBB2092B2CD92A292FD000230A93F2
:103B9000119B1A782E2A39D000239A46119A13784D
:103BA000683BD9B2122976D88B00C549CB589F46BD
:103BB00001231C4301321192D6E702231C43013238
:103BC0001192D1E704231C4301321192CCE7082360
:103BD0001C4301321192C7E710231C43013211929A
:103BE000C2E711A8FFF726FA0A90D1E71C9B1A1D1D
:103BF0001C921868002804DB0A90119B0133119372
:103C0000C6E702231C4343420A93F6E78022D20010
:103C100014435A1C11925A781300303BDBB2092B23
:103C200004D92A2A07D000239A46B7E711A8FFF73C
:103C300001FA8246B2E71C9B1A1D1C9218680028E4
:103C400004DB8246119B01331193A7E70020F8E7BC
:103C500080235B002343511C119152786C2A01D0C0
:103C60001C0018E0C0239B001C430131119112E09D
:103C700080232343511C11915278682A01D01C00E3
:103C800009E0C0231C430131119104E080235B0053
:103C90001C4301321192119B18780300253BDAB2C4
:103CA000532A00D92CE29300864AD3589F4680239A
:103CB0009B001C4301321192EDE780235B001C4303
:103CC00001321192E7E7782809D0582838D06F28B8
:103CD00038D0622838D010239C430A2600E01026F2
:103CE000582833D0692803D0642801D00C2294438B
:103CF000630501D50122944369282AD0642828D07D
:103D0000A30500D59FE0E30500D5B8E0630600D425
:103D1000CAE01C9A111D1C911168FF220A400594EB
:103D20000A9B049353460393029600230193009247
:103D300043463A0059462800FFF76EFA070027E08D
:103D40001026CDE70826CBE70226C9E72022144338
:103D5000C8E7A30520D4E30550D4630666D51C9AB2
:103D6000111D1C911168FF220A40D317D118594028
:103D700005940A9B0493534603930296D20F019233
:103D8000009143463A0059462800FFF745FA0700DC
:103D9000119B01331193D3E61C9BDA1D07218A4343
:103DA000110008311C91116853689C46DB170C9375
:103DB0000D930C9A0D9B100048400E9062465340A4
:103DC0000F930E980F990C9A0D9B801A99410E90A3
:103DD0000F9108940A9B0793534606930496002379
:103DE00005936346DA0F02920090019143463A0030
:103DF00059462800FFF76EFA0700C9E71C9A111D03
:103E00001C911268D317D118594005940A9B04934A
:103E1000534603930296D20F0192009143463A0013
:103E200059462800FFF7F8F90700B1E7230605D542
:103E30001C9A111D1C910023D25E96E71C9A111D3D
:103E40001C91126891E71C9BDA1D07218A4311001F
:103E500008311C9108940A9B0793534606930496D5
:103E6000002305930293136854680093019443461A
:103E70003A0059462800FFF72DFA070088E71C9AF8
:103E8000111D1C9105940A9B0493534603930296BB
:103E9000002301931368009343463A0059462800D3
:103EA000FFF7BAF9070073E723060DD51C9A111D19
:103EB0001C9112681204120C31E7C04640450110F3
:103EC00084450110D04501101C9A111D1C911268E7
:103ED00025E746281AD01C9B0733072293431A0074
:103EE00008321C9204940A9A0392524602925C6829
:103EF0001B680093019443463A0059462800FFF797
:103F000065FC0700119B0133119319E620231C4324
:103F1000E1E7672801D0472802D180231B011C4319
:103F2000452801D0472801D120231C431C9B07337F
:103F3000072293431A0008321C9204940A9A0392AF
:103F4000524602925C681B680093019443463A0013
:103F500059462800FFF730FA0700119B01331193EF
:103F6000EEE502231A002240924623421FD001248C
:103F70001C9B1A1D1C927A1C9146187843463A00E5
:103F80005946A8475346002B16D1119B0133119374
:103F90004F46D5E5561C434659462020B8472300D6
:103FA00032005C1C9D42F5D83D001700E0E701237C
:103FB0003A002F000A9DF4E74A46A9460A9D06E00A
:103FC000571C434659462020C84734003A00661C17
:103FD000A542F5D84D469146D7E71C9B1A1D1C9269
:103FE0001B6899465346002B00D1013B4E4601E029
:103FF000013613003278002A02D05A1E002BF7D166
:104000004B46F21A10928023DB0026001E401C4211
:1040100003D0524501D95346109302231A0022407F
:104020000B92234205D03A0037004C46A94655462C
:1040300020E03A00109B5F46B3462E0006E0551C78
:10404000434639002020B04723002A005C1C0A990F
:104050009942F4D835005E46BB46109437004C4672
:10406000A946554606E01D000134561C43465946F4
:10407000C84732002078002804D0002FF4D06B1EEF
:10408000002DF0D117004D460B9B002B03D1119B47
:104090000133119354E50A9F109B06E0561C4346DA
:1040A00059462020A847230032005C1C9F42F5D8C7
:1040B0001700ECE721231C431C9B1A1D1C921B6854
:1040C000009305940823049353460393102302930B
:1040D0000023019343463A0059462800FFF79CF815
:1040E0000700119B013311932AE57C1C43463A00DB
:1040F00059462520A847119B0133119327001FE53E
:104100007C1C43463A005946A847119B0133119342
:10411000270015E50A4B9A4610E5AA46474502D303
:1041200043465A1E00E03A00434659460020D04715
:10413000380013B0F0BCBB46B246A946A046F0BD5D
:10414000253000100EB410B585B0010007AC08CCC6
:1041500003940122009452420348FFF7E1FC05B0AA
:1041600010BC08BC03B018471D30001000B585B066
:10417000029003910121009313004A4202A90248D0
:10418000FFF7CEFC05B000BD273000100148042128
:10419000014B184790130020C9410010014B5B6888
:1041A000184700009013002010B5010018231B8849
:1041B00014221088984710BD10B5010018231B88E1
:1041C00016221088984710BDF0B5C64600B5070006
:1041D0000E0000250123984600E00135B5420AD2C1
:1041E000AC003C192068FFF7DFFF20600028F4D105
:1041F00000239846F1E7404680BCB846F0BD000079
:10420000124A936F9B0815D29066D166002905D09B
:10421000FFE7FFE7FFE7516F106F704704B580219C
:104220000906C2175140002800D0C8430EF0E8FF2D
:10423000002104BDF0B5146E556E576F166FFFF771
:10424000E3FF1466556657671667F0BD000000D09F
:10425000114A936F9B0813D210665166002905D04E
:10426000FFE7FFE7FFE7516F106F704704B50028C5
:1042700001D00020C0430EF0C3FF002104BDC046A2
:10428000F0B5146E556E576F166FFFF7E5FF1466A5
:10429000556657671667F0BD000000D094464A4A3D
:1042A000926F9208624601D228E0C046F0B5464EB1
:1042B000346E756E776F366F00F020F89446424A80
:1042C00014665566576716676246F0BD94463E4AC7
:1042D000926F9208624601D254E0C046F0B53A4E61
:1042E000346E756E776F366F00F04CF89446364A30
:1042F00014665566576716676246F0BD002B24DBCF
:1043000011D000293EDA00B5C943404200D1013145
:1043100000F038F8C943404200D10131DB4352423A
:1043200000D1013300BD002AEBD1002801D10029C2
:1043300005D00020C90FC90701D1C043410800B50D
:104340000EF036FF0022002300BD00B500290ADB75
:10435000DB43524200D1013300F014F8C94340421C
:1043600000D1013100BDC943404200D10131DB43DE
:10437000524200D1013300F005F8DB43524200D134
:10438000013300BD002923D1002B18D1002A0CD005
:10439000BC460D4F38667A6600210023FFE7FFE731
:1043A000FFE77A6F386F67467047002801D00748EB
:1043B000010000B50EF0FCFE0022002300BD02004B
:1043C0000B00002000217047000000D0FFFFFFFF1E
:1043D000002B00D0BFE0130C28D1002AE7D080B416
:1043E000114F39667A66FFE7FFE730B4040C7B6F44
:1043F000396F1B0423433B667A66FFE7FFE7FFE75D
:10440000C04684B27B6F3D6F1B0423433B667A66D4
:10441000FFE7FFE7C04600232C042D0C7A6F386FAE
:1044200000196941B0BC7047000000D0F0B5944657
:104430000025140E01D112020835140F01D112010A
:104440000435940F01D192000235D40F01D15200EE
:104450000135D40B0134254F7C66254C3C660E0C8F
:1044600093B2FFE7FFE7FFE73C6F6643360C770345
:10447000BE467343DF0B5B04C01AB941130C734390
:10448000DB18C91ACE086643360CB64493B27343A0
:104490001F0F1B01C01AB941130C73431F0B1B05DF
:1044A000C01AB941860D8F023E436643360C092D72
:1044B00024DB520A7243801A7703460A6643360C9D
:1044C00016235B1BDE40DF40BF1964466643821B38
:1044D0007046043506330100D940A840C01900D306
:1044E0000131A24206D20023F0BD0000000000D03E
:1044F000FFFFFFFF121B0130F3D3F1E709277F1BFA
:10450000FE406446A2B27243801A00D20139220CE6
:104510007243130C1204821A99410B007046043541
:1045200013370100F940A840801900D30131002B56
:1045300002D1A2420AD2F0BD013000D30131121BD8
:10454000FAD2013BF8D1A24200D2F0BD013000D333
:104550000131121BF7E7F0B51C0C00D080E00CB461
:1045600000251C0A04D11B02160E33431202083523
:104570001C0B04D11B01160F3343120104359C0B95
:1045800004D19B00960F334392000235DC0B02D11D
:1045900092185B4101351C00971864410134464F65
:1045A0007C66464C3C660E0CFFE7FFE7FFE7C04623
:1045B0003C6F6643360C7703BE4697B27743C01B09
:1045C00000D20139C01B00D201399FB27743C91B09
:1045D000C91B170C77437E04FF0B801BB941CE0823
:1045E0006643360C0C2D33DBB644120B1F053A43E1
:1045F0001B0B97B27743C01B00D201399FB27743A0
:10460000C91B170C77433E043F0C801BB941860D34
:104610008F023E43664329277F1BFE400C3D7746B1
:10462000AF40BF1930BCA2B2ABB272437343801A21
:104630009941220C7243130C1204801A9941020012
:104640000B000137001BA941F9D2781E0021F0BDF3
:104650000C277F1BFE4077467F0BAF40FF19E0E73A
:1046600000245D1C07D0144F7D663966FFE7FFE725
:10467000FFE7FFE73C6F95B29EB265436643401B80
:10468000B141150C1E0C6543664336042F0C3E43A6
:104690002D04401BB141994204D202000B002000BE
:1046A0000021F0BD01D19042F7D3801A9941013425
:1046B0009942F2D3F6E70000000000D0FFFFFFFFB1
:1046C00048404140484018B4134B5B68019308BD13
:1046D00018B4114B1B68019308BD94460F4A926FA2
:1046E000920805D2624618B40B4BDB68019308BDF3
:1046F0000A4AF0B5146E556E576F166F6246FFF793
:10470000F2FF064A1466556657671667F0BD18B47F
:10471000014B9B68019308BD0C230020000000D0D2
:10472000FFB550404240504059404B40594000E096
:10473000FFB5154F4C00640D03D0BC4204D10C03EF
:1047400014D80020090D09055C00640D03D0BC429B
:1047500004D11C030AD800221B0D1B0501264B4067
:1047600009D44B4003D58B4200D18242FFBD994210
:10477000FCD19042FFBD0B43DB1803431343F5D03C
:10478000C9434918FFBD0000FF07000000B5FFF74F
:10479000CFFF01D0002000BD012000BD00B5FFF714
:1047A000C7FF804100BDC04600B5FFF7C1FF01D97A
:1047B000002000BD012000BD00B5FFF7B1FF01D909
:1047C000002000BD012000BD00B5FFF7A9FF80411A
:1047D00000BD012040054A00121804D85A001218E2
:1047E00001D800207047012070470020704700006A
:1047F0000021002805D17047C1174840401AFAD05F
:10480000C90713B5064B1B6898470CBC441CA24053
:104810001005120B0349091B09051943114310BD6B
:104820000C2400201F04000010B54C00620D8023F2
:10483000D218DB00D21A5B057E2A10DD9E3A13DA0D
:10484000CC170903490819435242D140640001348E
:104850001532202A05DAD0400843604310BD0020FD
:1048600010BD0846604310BDC80FC018013810BD08
:1048700018B4024B5B6A019308BD00000C230020B2
:1048800018B4024BDB6F019308BD00000C2300201D
:1048900018B4024BDB6C019308BD00000C23002010
:1048A00018B4024B1B6D019308BD00000C230020BF
:1048B00010B50148FEF794FB7047011070B5132343
:1048C0001C78012C14D0012C14DC022C02DC1F4AB1
:1048D0001F4B9A641F48FFF767FC1F4B186070BDA1
:1048E00099001E481A4A885001331F2BF8D9EAE76D
:1048F0000023FAE71A48FFF75FFC05001948FFF7A5
:104900005BFC023803789B007F2B19DD8022290095
:104910000F4800F047FE022CD7D1134B1A88B5235D
:104920001B029A4209D1114B1A88114B9A4204D1A9
:10493000104B1A88104B9A42C7D00020FEF750FB4C
:104940000E4B0F4A32210F48FEF7B0FA31530010D8
:104950000C2300204C3300000C240020B148001030
:10496000534400005346000054380000D83800007B
:10497000494600009C380000594600008847011055
:1049800040480110DC47011070B504000D0016000E
:10499000012A0ED0D20F92195210FFF7F5FF020034
:1049A0000B00FFF7B4FEF30703D522002B00FFF73F
:1049B000AEFE70BDF0B5D6464F464646C0B588B08F
:1049C00014001D000E0D7605760D974B9846B044E9
:1049D000964B9B1B009001910F0D7F0514D0944FB7
:1049E000BE4211D0991900290ADD924881423ADD70
:1049F000019BDB0FDB0700208F4A1A43110003E005
:104A00000020019BDB0FD907FFF74AFF8B4A8C4B35
:104A1000FFF763FE00228B4B00900191FFF7D4FE5D
:104A200000280AD00022884B00980199FFF74BFE1E
:104A300000900191854B9846B0444346002B1BD013
:104A40000022834B20002900FFF7B6FE00281FD06C
:104A50004346002B19DB0020774908B0E0BCBA467A
:104A6000B146A846F0BD00201905009A019B121816
:104A70004B4110001900C7E722002B000098019954
:104A8000FFF745FE00F030FAE7E700200021E4E7F9
:104A90000022704B20002900FFF786FE002808D076
:104AA0004346002B02DB00200021D6E700206249AC
:104AB000D3E72000290000F0C9F906000F0002002A
:104AC0000B0020002900FFF7FEFD029003911A223F
:104AD00000F094F900F0BAF904000D0002000B0098
:104AE000090D4905480D002913D05149884210D0BD
:104AF0001A3800280ADD4F49884200DC84E0EB0FB9
:104B0000DB0700244C4A1A43150002E00024EB0F97
:104B1000DD0722002B0002980399FFF7D4FD0690D1
:104B2000079130003900FFF77FFE814603004146C0
:104B30004B439A464046FFF75FFE22002B0004904D
:104B40000591FFF7E4FD06000F0000F07FF9040077
:104B50000D00FFF769FE8046D04422002B00300094
:104B60003900FFF7B0FD04000D00069A079B04987A
:104B70000599FFF7CCFD02000B0020002900FFF78C
:104B8000A7FD049005914846FFF736FE009A019B69
:104B9000FFF7BDFD04000D0000F058F906000F00FE
:104BA000FFF742FE804432003B0020002900FFF75F
:104BB0008AFD049A059BFFF78BFD04000D00029A05
:104BC000039B00980199FFF7A2FD22002B00FFF73D
:104BD0007FFD00F089F904000D000B0D5B055A0DF7
:104BE000002B00D139E7124B9A4200D135E74244FD
:104BF000002A0EDD0F4B9A420FDDCB0FDB070020A2
:104C00000D4A1A43110028E70024134DA4185D41F2
:104C10007FE70020CB0FD9071FE700204346190587
:104C20000019694119E7C04601FCFFFFFF030000BE
:104C3000FF070000FE0700000000F07FEF39FAFEDA
:104C4000422EE63F0000E03F0000F03F02FCFFFF85
:104C50000000B0400000B0C0000060FEF0B5D646D5
:104C600000B582B001900E0000921D0003000C0000
:104C7000CA0F9246002955DA2A0D5205520D58499D
:104C800052183ED434218A1A3DD45439501825D4B0
:104C90001F318140012040429040009E86433000F9
:104CA0002E008E43310001432FD1342A2FD02039DA
:104CB00051181CD42A00CA4001210A40002A28D0D9
:104CC000180080263606A119009A2B00FFF7C6FFB0
:104CD0008B19190002B080BCBA46F0BD2020801AA2
:104CE000012149420E00C64091403143D2E72021C4
:104CF000891A2800884001000098D04002000A4329
:104D0000DAE70022DAE70022D8E70022D6E701221C
:104D1000D4E7180080231B06E118009A2B00FFF748
:104D20009DFFD7E700982900FFF77EFD0700019A55
:104D3000310D4905480D002907D02A49884213D072
:104D400033031B0B13435842584100280ED1002F48
:104D500043D03B002033402B2DD9009A2B000198E3
:104D60003100FFF727FEB5E75046EEE7200D40057E
:104D7000400D1B4B9C46604480231B019F4204DA7C
:104D8000194B9F4202DA184F00E0164F7843174B39
:104D9000C318002B09DD164A934209DC00260705DB
:104DA000002014498019794194E70020002191E7FF
:104DB000002011498EE7002F05DB3A0001983100F1
:104DC000FFF7E2FD86E7019A330000200949FFF76B
:104DD00084FC01900E007F42EFE70020054979E74F
:104DE00001FCFFFFFF07000000F8FFFFFF030000CA
:104DF000FE0700000000F03F0000F07F30B50B0D13
:104E00005B055C0D002B14D00D4B9C4211D0141986
:104E1000002C09DD0B4B9C420CDDC90FC907002497
:104E200009480843050002E00024C90FCD0720000F
:104E3000290030BD0024150524184D41F7E7C04670
:104E4000FF070000FE0700000000F07F70B50B0DAB
:104E50005B055B0D224A944663445A1C26DB5A1CB0
:104E60002AD03422D21A002A1FDD3324E41A202348
:104E70005B42E51827D40126AE4033000125A5404A
:104E80002A0012184B4120214942651821D40226DC
:104E9000AE4031000225A5402800002544428D4146
:104EA0001600264030002B40190070BD0022C90FAB
:104EB000CB0710001900F8E7CB0FDB070020094AE9
:104EC0001A431100F1E720252D1B0126EE40330087
:104ED000D4E720252D1B0226EE403100DAE7C0463C
:104EE00001FCFFFF0000F03F70B505000C000A0D4B
:104EF000284B9A4247D00022274B28002100FFF779
:104F000053FC002842D10022244B28002100FFF747
:104F100053FC002802D00020214939E0280021005C
:104F2000FFF794FFFFF780FC0600FFF765FC020027
:104F30000B0028002100FFF7C6FB1A4A1A4BFFF7A7
:104F4000E6FBFFF7A5FC04000D000B0D5B055A0DF9
:104F5000002B1DD0154B9A421AD0B218002A09DD39
:104F6000134B9A420ADDCB0FDB0700200C4A1A4391
:104F700011000DE00020CB0FD90709E0002031051A
:104F80000019694104E00020002101E00020002117
:104F900070BDC046FF0F00000000B0C00000B04070
:104FA0000000F07FEF39FAFE422EE63FFF070000D7
:104FB000FE070000F0B583B0050000900C000192E0
:104FC0001F000022B44B28002100FFF7DFFB002860
:104FD00041D13E0D73055D0D002B3CD00022AF4B3F
:104FE00000982100FFF7D2FB002803D0AC4B9D4274
:104FF00000D181E1220D5305590D002B00D081E035
:10500000FA0F002F3FDB3B0D5B055B0DA5495B18DD
:105010001CD43421CB1A19D45439581821D41F3137
:105020008140012040429840019D854328003D0079
:105030008D432900014309D1342B22D02022524232
:105040009A1817D4D7403A0001231A40002A00D1F9
:1050500055E1009D01E000258F4C2800210003B0A0
:10506000F0BD2020C01A012149420D00C5409940E1
:105070002943D6E72022D21A9740019ADA403A43D0
:10508000E2E70122E2E73B0D5B055B0D854A9B18D9
:105090001BD43422D31A18D4543A981820D41F326F
:1050A0008240012040429840019D854328003D00F8
:1050B00095432A00024308D1342B21D0203A9A1874
:1050C00017D43900D14001231940002900D119E13A
:1050D000E40FE40700227449214315000C00BCE7EB
:1050E0002020C01A012252421500C5409A402A438E
:1050F000D7E72022D21A97400199D9403943E2E7F5
:105100000121E2E7664B9A422CD0684B9A422FD09D
:10511000634B9E4200D1A9E0644B9E4200D1ABE0BC
:105120003B0D5B055A0D002B00D1C5E05D4BD2183D
:1051300000D5C9E034239A1A002A00DCC6E0543BAB
:10514000D11800D59EE01F338B4001214942914088
:10515000019A8A43390099430B00134300D0B7E00A
:105160000133AAE0002F00DBCFE00025002474E724
:10517000FA0F002F3ADB3B0D5B055B0D49495B18CD
:105180001CD43421CB1A19D4543958181CD41F31CB
:105190008140012040429840019C844320003C0013
:1051A0008C432100014309D1342B1DD020225242CF
:1051B0009A1812D4D7403A0001231A40002A00D18D
:1051C000A6E000253A4C48E72020C01A01214942B8
:1051D0000C00C44099402143DBE72022D21A9740BB
:1051E000019ADA403A43E7E70122E7E73B0D5B0526
:1051F0005B0D2C4A9B1831D43422D31A30D4543A44
:1052000099181AD41F328A400121494299400198C5
:10521000884301003800904302000A4322D1342B16
:1052200022D0203A9A1811D4D74001263740002FB7
:1052300071D00025802424060FE72021C91A0122FD
:1052400052421000C8409A400243DDE72022D21AA1
:1052500097403A00019FDF401743E6E70027E6E763
:105260000027E4E70027E2E70127E0E7114B994236
:1052700054DC00250024F0E60E4B994251DC002559
:10528000094CEAE62021891A01235B421800C84034
:105290009340034359E7C0460000F03F0000F0BFD1
:1052A000FF07000001FCFFFF0000F07FFF0F000080
:1052B0000000F0FFFE0300000123002B0AD1002CA8
:1052C00011DA0025184CC8E60023F6E70123F4E7BD
:1052D0000023F2E7019A3B0000982100FFF7BEFC93
:1052E00005000C00B9E6019A3B0000982100FFF789
:1052F00061FB05000C00B0E600250C4CADE6002576
:105300000024AAE60025084CA7E60025064CA4E6E2
:105310000025054CA1E6002500249EE60025024C50
:105320009BE60025002498E60000F07F0000F03F97
:1053300007B56046002800D100BE01880A0A023085
:10534000DF2AFAD1C9B2820804D302884088000457
:10535000104300E00068024A5050039007BD00006F
:105360000C23002051434343C9188C46110C83B2CF
:105370004B4310B4040C614392B280B25043624379
:105380001C041B0C001910BC59411304120CC0184A
:1053900051416144704700004840414048400E4B35
:1053A0005B6818470C4B1B6818470C4A936F9B08A7
:1053B00002D2094BDB681847F0B5146E556E576F73
:1053C000166FFFF7F6FF054A1466556657671667AE
:1053D000F0BD014B9B68184710240020000000D04E
:1053E00007B548404140484001E0C04607B542008B
:1053F000120E03D0FF2A03D1420218D8C00DC005F7
:105400004A00120E03D0FF2A03D14A020FD8C90D59
:10541000C9050122414005D4414001D5814207BD63
:10542000884207BD0143491801D0C043001807BD99
:1054300000B5FFF7DBFF01D0002000BD012000BD5B
:10544000014B5B6A1847000010240020014BDB6F02
:10545000184700001024002010B50148FDF7C0FDDA
:105460004444011070B513231E781848FEF7A4FEBB
:105470000500012E11D0012E09DDAB1E1B789B000B
:105480007F2B1DDD80222900114800F08BF8114888
:10549000FEF78AFE104B186070BD542201000C48C4
:1054A00000F080F8002300E001331F2BE3D89A00BE
:1054B000074C1259002AF7D19A0008481051F3E717
:1054C000074B084A42210848FDF7F0FC534600000C
:1054D000102400204C3300000C24002059540010EC
:1054E00054480110EC4801108848011070B50400C0
:1054F0000A4E30000DF0C4FE20000CF07FF80500CD
:1055000030000DF04DFE002D05D02C19044B9C42AF
:1055100001D8280070BD0348FDF762FD241C00205F
:10552000000004200049011070B505000C000B4E6E
:1055300030000DF0A5FE210028000CF033FC050022
:1055400030000DF02DFE002D05D02C19044B9C428F
:1055500001D8280070BD0348FDF742FD241C00203F
:10556000000004200049011070B50400054D28001A
:105570000DF086FE20000CF04BF828000DF010FE18
:1055800070BDC046241C002001480421014B18476F
:10559000A0130020C9410010014B1B6818470000F0
:1055A000A0130020014B5B6818470000A0130020E7
:1055B00010B5FFF79BFF10BD10B5FFF7D5FF10BD6D
:1055C00010B5FFF7D1FF10BD10B5030008001100A2
:1055D0001B68984710BD0000F8B507000D001600C5
:1055E000437D002B02D0002400200CE00368110052
:1055F000280098472DE03B7D10E0022115483B68CC
:105600009847601C0134B44214DA002CF3DD2B19E6
:10561000013B1B780D3B5A425341DBB22A5D0A2AFB
:10562000F0D1002BEED1A042E7DA211A28183B680E
:105630009847E2E7B04203DA311A28183B689847E6
:10564000002E06DDAD19013D2B780D3B5A4253412A
:105650003B75F8BD8849011070B505000368002B43
:1056600016D00C4B1C6805E0290004C92000FFF788
:10567000B3FF2469002C09D02368002BF9D0064B16
:105680001B68002BF0D0A342F3D1EDE700232B6081
:1056900070BDC046402000204820002070B50500A5
:1056A0000C000B68802B05D021684B1C236064180C
:1056B000257170BD0800FFF7CFFFF5E7F0B583B0A7
:1056C00007000E000092019328E0A368002B04D08D
:1056D000310038009847002827DC2469002C06D0C8
:1056E000134B1D68002DF0D0A542F6D1EDE70099CF
:1056F000019A104B5B6A9A4209D80E48806A884228
:105700000FD29A4201D0012302E0002300E00023DF
:10571000002B08D101200021FCF7FEFD064B1C6880
:10572000DCE70123F4E70120404203B0F0BDC046AE
:1057300048200020004005404020002010B5FCF724
:10574000CBFD02000B1E0BDB0D48002112184B4154
:10575000002B0BDB002B0DDB0A480DF071FD10BD9B
:10576000094B0A4A3F210A48FDF7A0FB0122524299
:10577000084BEFE7044B054A3F210548FDF796FB30
:1057800040420F002C1C00201C3C011070490110ED
:10579000383C0110FFFFFF7F10B502480DF000FDFF
:1057A00010BDC0462C1C0020F0B5CE46474680B543
:1057B00083B006000D0090461C00FFF7BFFF814636
:1057C0006B1C05D0002C08D0194F1A4B1C6807E041
:1057D00030000CF0F3FE0500F4E7174FF5E72469FD
:1057E000002C17D02368002BF9D0144B1B68002B1A
:1057F00001D0A342F3D12A0031002000B84743462C
:10580000002BECD06B46D91D0A230B70012220001F
:10581000B847E4E74B46002B07D16B1E9D41E8B229
:1058200003B0C0BCB946B046F0BDFFF7B5FFF4E722
:10583000C955001040200020D955001048200020F4
:1058400010B5030008001100002B05D1044B1A68A5
:105850005B68FFF733FF10BD01204042FBE7C04605
:105860007040011010B5030008001400013B012B2B
:1058700006D8002300222100FFF796FF200010BD6C
:1058800001204042FBE70120404270470120404296
:1058900070470120404270470300002002229A42D4
:1058A00040417047094A01E010331A001368002B89
:1058B00008D08342F8D1002907D10369136000237F
:1058C000036102E0002900D01060704740200020F2
:1058D00010B5064B1C6801E098472469002C03D0E2
:1058E0006368002BF8D1F8E710BDC04640200020C7
:1058F00070B505000CF062FE0400002301220100D7
:105900002800FFF751FFFFF7E3FF200070BD000004
:1059100070B5A2B004000E00FFF710FF05000023D1
:1059200001933300220001A90848FEF71FFC040080
:1059300001A8FFF791FEFFF7CBFF002D02D1200059
:1059400022B070BDFFF728FFF9E7C0469D56001052
:105950000FB400B583B004A901C90191FFF7D8FFC6
:1059600003B008BC04B0184710B500F0F9F80120E6
:1059700010BD0000F0B583B005000E0000240FE05C
:105980006B46D91D0D230B700020002816D193699A
:105990009B06FCD40B78136001300131F5E701342C
:1059A000B44219DA0D4B1A682F5D0D4BD3185942CA
:1059B0004B415B000B495B5EBB42E1D06B46D91D9E
:1059C0000F7000200028EAD193699B06FCD40B7865
:1059D000136001300131F5E703B0F0BD2825002048
:1059E0000080FCBF24250020F0B583B006000F0026
:1059F000002504E06B4607331B782B702500BD4261
:105A000015DA174B1A6893691024210019401C42BB
:105A10000DD16C1C75196B46D81D0029EAD193690C
:105A2000DB06FCD41368037001310130F5E70D4B40
:105A30001B68002B0CD00A4B1A685023936311008B
:105A40003431536B38221A4080235B010B431A60B8
:105A5000002D02D0280003B0F0BD033DFAE7C04698
:105A600028250020CC1F002010B5064B1B68002BFA
:105A700006D0054A126800219163044A10689847CD
:105A800010BDC046CC1F002028250020D01F0020BC
:105A900070B504000E001C4B1B681C4A981842424B
:105AA000504114300500002C03D0194A1268002A16
:105AB00006D0002C19D0164B1C60164B1E6070BD12
:105AC0001549FBF74FFC01212800FBF73BFC0E4B6F
:105AD0001A685023936311003431536B38221A40F3
